{
    "contractName": "Vote",
    "abi": [
        {
            "inputs": [],
            "stateMutability": "nonpayable",
            "type": "constructor"
        },
        {
            "anonymous": false,
            "inputs": [
                {
                    "indexed": true,
                    "internalType": "address",
                    "name": "to",
                    "type": "address"
                },
                {
                    "indexed": false,
                    "internalType": "uint256",
                    "name": "amount",
                    "type": "uint256"
                }
            ],
            "name": "PaymentReleased",
            "type": "event"
        },
        {
            "anonymous": false,
            "inputs": [
                {
                    "indexed": true,
                    "internalType": "address",
                    "name": "userAddr",
                    "type": "address"
                },
                {
                    "indexed": false,
                    "internalType": "uint8",
                    "name": "vote",
                    "type": "uint8"
                }
            ],
            "name": "UserVoted",
            "type": "event"
        },
        {
            "anonymous": false,
            "inputs": [
                {
                    "indexed": false,
                    "internalType": "uint8",
                    "name": "result",
                    "type": "uint8"
                }
            ],
            "name": "VoteFinished",
            "type": "event"
        },
        {
            "stateMutability": "payable",
            "type": "fallback"
        },
        {
            "inputs": [],
            "name": "getCanVote",
            "outputs": [
                {
                    "internalType": "bool",
                    "name": "",
                    "type": "bool"
                }
            ],
            "stateMutability": "view",
            "type": "function"
        },
        {
            "inputs": [],
            "name": "getTotalDeposit",
            "outputs": [
                {
                    "internalType": "uint256",
                    "name": "",
                    "type": "uint256"
                }
            ],
            "stateMutability": "view",
            "type": "function"
        },
        {
            "inputs": [
                {
                    "internalType": "uint256",
                    "name": "value",
                    "type": "uint256"
                },
                {
                    "internalType": "string",
                    "name": "_func",
                    "type": "string"
                },
                {
                    "internalType": "bytes",
                    "name": "_data",
                    "type": "bytes"
                },
                {
                    "internalType": "uint256",
                    "name": "_timestamp",
                    "type": "uint256"
                }
            ],
            "name": "getTxId",
            "outputs": [
                {
                    "internalType": "bytes32",
                    "name": "txId",
                    "type": "bytes32"
                }
            ],
            "stateMutability": "view",
            "type": "function"
        },
        {
            "inputs": [
                {
                    "internalType": "address",
                    "name": "_addr",
                    "type": "address"
                }
            ],
            "name": "getUserVoted",
            "outputs": [
                {
                    "internalType": "bool",
                    "name": "",
                    "type": "bool"
                }
            ],
            "stateMutability": "view",
            "type": "function"
        },
        {
            "inputs": [],
            "name": "getVoteCost",
            "outputs": [
                {
                    "internalType": "uint256",
                    "name": "",
                    "type": "uint256"
                }
            ],
            "stateMutability": "view",
            "type": "function"
        },
        {
            "inputs": [
                {
                    "internalType": "uint8",
                    "name": "_userVote",
                    "type": "uint8"
                }
            ],
            "name": "receiveVote",
            "outputs": [],
            "stateMutability": "payable",
            "type": "function"
        },
        {
            "stateMutability": "payable",
            "type": "receive"
        }
    ],
    "bytecode": "608060405234801561001057600080fd5b506000805460ff19166001908117909155655af3107a400090556105af806100396000396000f3fe6080604052600436106100595760003560e01c8063163b4b051461006257806356e4d0301461008d5780635850b93d146100ba578063a016c862146100cf578063c022215c146100e2578063dabb99b0146100f757610060565b3661006057005b005b34801561006e57600080fd5b50610077610117565b60405161008491906104e1565b60405180910390f35b34801561009957600080fd5b506100ad6100a836600461038e565b61011d565b60405161008491906104d6565b3480156100c657600080fd5b506100ad61013b565b6100606100dd36600461043b565b610144565b3480156100ee57600080fd5b50610077610302565b34801561010357600080fd5b506100776101123660046103bc565b610306565b60015490565b6001600160a01b031660009081526002602052604090205460ff1690565b60005460ff1690565b600154341461016e5760405162461bcd60e51b815260040161016590610516565b60405180910390fd5b60005460ff1615156001146101955760405162461bcd60e51b815260040161016590610541565b3360009081526002602052604090205460ff16156101c55760405162461bcd60e51b8152600401610165906104ea565b336000908152600260205260409020805460ff1916600190811790915560ff821614156102575760036020527fa15bc60c955c405d20d9149c709e2460f1c2d9a497496a7f46004d1772c3054c80546001810182556000919091527f2c644dcf44e265ba93879b2da89e1b16ab48fc5eb8e31bc16b0612d6da8463f10180546001600160a01b031916331790556102be565b60036020527f3617319a054d772f909f7c479a2cebe5066e836a939412e32403c99029b92eff80546001810182556000919091527fcfb339bd1c51c488f6134f4ac63d1594afad827b3401c3fc51ed1da74a8ca14e0180546001600160a01b031916331790555b336001600160a01b03167fb43d7bd4f48dae3cf3852206130adcff9ea51699276e60589ebec297e4e88360826040516102f7919061056b565b60405180910390a250565b4790565b6000308787878787876040516020016103259796959493929190610486565b6040516020818303038152906040528051906020012090509695505050505050565b60008083601f840112610358578182fd5b50813567ffffffffffffffff81111561036f578182fd5b60208301915083602082850101111561038757600080fd5b9250929050565b60006020828403121561039f578081fd5b81356001600160a01b03811681146103b5578182fd5b9392505050565b600080600080600080608087890312156103d4578182fd5b86359550602087013567ffffffffffffffff808211156103f2578384fd5b6103fe8a838b01610347565b90975095506040890135915080821115610416578384fd5b5061042389828a01610347565b979a9699509497949695606090950135949350505050565b60006020828403121561044c578081fd5b813560ff811681146103b5578182fd5b60008284528282602086013780602084860101526020601f19601f85011685010190509392505050565b600060018060a01b038916825287602083015260a060408301526104ae60a08301878961045c565b82810360608401526104c181868861045c565b91505082608083015298975050505050505050565b901515815260200190565b90815260200190565b602080825260129082015271155cd95c88185b1c9958591e481d9bdd195960721b604082015260600190565b60208082526011908201527029b2b732101817181818189032ba3432b960791b604082015260600190565b60208082526010908201526f159bdd1a5b99c81a185cc8195b99195960821b604082015260600190565b60ff9190911681526020019056fea2646970667358221220035e6ed2c377027db8eb3c9d834b405e32687de08645f36f4796818cd78ff93764736f6c63430008000033",
    "sourcePath": "d:/Proyectos/Zerti/contracts/Vote.sol",
    "compiler": {
        "name": "solc",
        "version": "0.8.0+commit.c7dfd78e"
    },
    "functionHashes": {
        "getCanVote()": "5850b93d",
        "getTotalDeposit()": "c022215c",
        "getTxId(uint256,string,bytes,uint256)": "dabb99b0",
        "getUserVoted(address)": "56e4d030",
        "getVoteCost()": "163b4b05",
        "receiveVote(uint8)": "a016c862"
    },
    "gasEstimates": {
        "creation": {
            "codeDepositCost": "291000",
            "executionCost": "41170",
            "totalCost": "332170"
        },
        "external": {
            "": "195",
            "getCanVote()": "1062",
            "getTotalDeposit()": "296",
            "getTxId(uint256,string,bytes,uint256)": "infinite",
            "getUserVoted(address)": "1247",
            "getVoteCost()": "1006",
            "receiveVote(uint8)": "66946"
        },
        "internal": {
            "distributePool(uint8,uint256)": "infinite",
            "voteFinalization()": "infinite"
        }
    }
}