{
    "contractName": "Vote",
    "abi": [
        {
            "anonymous": false,
            "inputs": [
                {
                    "indexed": false,
                    "internalType": "uint8",
                    "name": "version",
                    "type": "uint8"
                }
            ],
            "name": "Initialized",
            "type": "event"
        },
        {
            "anonymous": false,
            "inputs": [
                {
                    "indexed": true,
                    "internalType": "address",
                    "name": "userAddr",
                    "type": "address"
                },
                {
                    "indexed": false,
                    "internalType": "uint8",
                    "name": "vote",
                    "type": "uint8"
                }
            ],
            "name": "UserVoted",
            "type": "event"
        },
        {
            "anonymous": false,
            "inputs": [
                {
                    "indexed": false,
                    "internalType": "uint8",
                    "name": "result",
                    "type": "uint8"
                }
            ],
            "name": "VoteFinished",
            "type": "event"
        },
        {
            "stateMutability": "payable",
            "type": "fallback"
        },
        {
            "inputs": [],
            "name": "endTime",
            "outputs": [
                {
                    "internalType": "uint256",
                    "name": "",
                    "type": "uint256"
                }
            ],
            "stateMutability": "view",
            "type": "function"
        },
        {
            "inputs": [],
            "name": "getTime",
            "outputs": [
                {
                    "internalType": "uint256",
                    "name": "",
                    "type": "uint256"
                },
                {
                    "internalType": "uint256",
                    "name": "",
                    "type": "uint256"
                }
            ],
            "stateMutability": "view",
            "type": "function"
        },
        {
            "inputs": [],
            "name": "getTotalDeposit",
            "outputs": [
                {
                    "internalType": "uint256",
                    "name": "",
                    "type": "uint256"
                }
            ],
            "stateMutability": "view",
            "type": "function"
        },
        {
            "inputs": [
                {
                    "internalType": "address",
                    "name": "_addr",
                    "type": "address"
                }
            ],
            "name": "getUserVoted",
            "outputs": [
                {
                    "internalType": "bool",
                    "name": "",
                    "type": "bool"
                }
            ],
            "stateMutability": "view",
            "type": "function"
        },
        {
            "inputs": [],
            "name": "getVoteCost",
            "outputs": [
                {
                    "internalType": "uint256",
                    "name": "",
                    "type": "uint256"
                }
            ],
            "stateMutability": "view",
            "type": "function"
        },
        {
            "inputs": [
                {
                    "internalType": "uint256",
                    "name": "_votingCost",
                    "type": "uint256"
                },
                {
                    "internalType": "uint256",
                    "name": "_minVotes",
                    "type": "uint256"
                },
                {
                    "internalType": "uint256",
                    "name": "_timeToVote",
                    "type": "uint256"
                },
                {
                    "internalType": "address",
                    "name": "_sender",
                    "type": "address"
                }
            ],
            "name": "initialize",
            "outputs": [],
            "stateMutability": "nonpayable",
            "type": "function"
        },
        {
            "inputs": [
                {
                    "internalType": "uint8",
                    "name": "_userVote",
                    "type": "uint8"
                }
            ],
            "name": "receiveVote",
            "outputs": [],
            "stateMutability": "payable",
            "type": "function"
        },
        {
            "inputs": [],
            "name": "sender",
            "outputs": [
                {
                    "internalType": "address",
                    "name": "",
                    "type": "address"
                }
            ],
            "stateMutability": "view",
            "type": "function"
        },
        {
            "inputs": [],
            "name": "startTime",
            "outputs": [
                {
                    "internalType": "uint256",
                    "name": "",
                    "type": "uint256"
                }
            ],
            "stateMutability": "view",
            "type": "function"
        },
        {
            "stateMutability": "payable",
            "type": "receive"
        }
    ],
    "bytecode": "608060405234801561001057600080fd5b506106f1806100206000396000f3fe60806040526004361061008a5760003560e01c806356e4d0301161005957806356e4d0301461011657806367e404ce1461014357806378e9792514610165578063a016c8621461017a578063c022215c1461018d57610091565b8063163b4b05146100935780631f8d519d146100be5780633197cbb6146100de578063557ed1ba146100f357610091565b3661009157005b005b34801561009f57600080fd5b506100a86101a2565b6040516100b59190610657565b60405180910390f35b3480156100ca57600080fd5b506100916100d93660046104c8565b6101a8565b3480156100ea57600080fd5b506100a8610264565b3480156100ff57600080fd5b5061010861026a565b6040516100b5929190610660565b34801561012257600080fd5b506101366101313660046104a7565b610274565b6040516100b5919061053b565b34801561014f57600080fd5b50610158610296565b6040516100b59190610527565b34801561017157600080fd5b506100a86102a5565b610091610188366004610506565b6102ab565b34801561019957600080fd5b506100a86103cf565b60015490565b60006101b460016103d3565b905080156101cc576000805461ff0019166101001790555b60018590556002849055426003556101e78362015180610686565b6003546101f4919061066e565b600455600580546001600160a01b0319166001600160a01b038416179055801561025d576000805461ff00191690556040517f7f26b83ff96e1f2b6a682f133852f6798a09c465da95921460cefb38474024989061025490600190610546565b60405180910390a15b5050505050565b60045481565b6003546004549091565b6001600160a01b03811660009081526006602052604090205460ff165b919050565b6005546001600160a01b031681565b60035481565b6000600154116102d65760405162461bcd60e51b81526004016102cd906105f6565b60405180910390fd5b60015434146102f75760405162461bcd60e51b81526004016102cd90610620565b60018160ff16111561031b5760405162461bcd60e51b81526004016102cd90610554565b3360009081526006602052604090205460ff161561034b5760405162461bcd60e51b81526004016102cd9061057c565b336000818152600660209081526040808320805460ff1916600190811790915560ff8616845260078352818420805491820181558452919092200180546001600160a01b03191683179055517fb43d7bd4f48dae3cf3852206130adcff9ea51699276e60589ebec297e4e88360906103c4908490610546565b60405180910390a250565b4790565b60008054610100900460ff1615610421578160ff1660011480156103fd57506103fb3061045f565b155b6104195760405162461bcd60e51b81526004016102cd906105a8565b506000610291565b60005460ff8084169116106104485760405162461bcd60e51b81526004016102cd906105a8565b506000805460ff191660ff83161790556001610291565b600080826001600160a01b0316803b806020016040519081016040528181526000908060200190933c511192915050565b80356001600160a01b038116811461029157600080fd5b6000602082840312156104b8578081fd5b6104c182610490565b9392505050565b600080600080608085870312156104dd578283fd5b8435935060208501359250604085013591506104fb60608601610490565b905092959194509250565b600060208284031215610517578081fd5b813560ff811681146104c1578182fd5b6001600160a01b0391909116815260200190565b901515815260200190565b60ff91909116815260200190565b6020808252600e908201526d496e636f727265637420766f746560901b604082015260600190565b602080825260129082015271155cd95c88185b1c9958591e481d9bdd195960721b604082015260600190565b6020808252602e908201527f496e697469616c697a61626c653a20636f6e747261637420697320616c72656160408201526d191e481a5b9a5d1a585b1a5e995960921b606082015260800190565b60208082526010908201526f159bdd1a5b99c81a185cc8195b99195960821b604082015260600190565b6020808252601c908201527f53656e6420636f727265637420616d6f756e74206f6620657468657200000000604082015260600190565b90815260200190565b918252602082015260400190565b60008219821115610681576106816106a5565b500190565b60008160001904831182151516156106a0576106a06106a5565b500290565b634e487b7160e01b600052601160045260246000fdfea2646970667358221220bbc6d23d18965af02ecb13baf4d3ce8450ce7dc724fbf1cb6edde24805b4874064736f6c63430008000033",
    "sourcePath": "/home/lu/Desktop/Zerti/Zerti/contracts/Vote.sol",
    "compiler": {
        "name": "solc",
        "version": "0.8.0+commit.c7dfd78e"
    },
    "functionHashes": {
        "endTime()": "3197cbb6",
        "getTime()": "557ed1ba",
        "getTotalDeposit()": "c022215c",
        "getUserVoted(address)": "56e4d030",
        "getVoteCost()": "163b4b05",
        "initialize(uint256,uint256,uint256,address)": "1f8d519d",
        "receiveVote(uint8)": "a016c862",
        "sender()": "67e404ce",
        "startTime()": "78e97925"
    },
    "gasEstimates": {
        "creation": {
            "codeDepositCost": "355400",
            "executionCost": "393",
            "totalCost": "355793"
        },
        "external": {
            "": "174",
            "endTime()": "1073",
            "getTime()": "1919",
            "getTotalDeposit()": "318",
            "getUserVoted(address)": "infinite",
            "getVoteCost()": "1029",
            "initialize(uint256,uint256,uint256,address)": "infinite",
            "receiveVote(uint8)": "67031",
            "sender()": "1092",
            "startTime()": "1072"
        },
        "internal": {
            "distributePool(uint8,uint256)": "infinite",
            "voteFinalization()": "infinite"
        }
    }
}