{
    "contractName": "Badge",
    "abi": [
        {
            "inputs": [
                {
                    "internalType": "string",
                    "name": "_uri",
                    "type": "string"
                },
                {
                    "internalType": "string",
                    "name": "_name",
                    "type": "string"
                },
                {
                    "internalType": "string",
                    "name": "_symbol",
                    "type": "string"
                },
                {
                    "internalType": "string",
                    "name": "contractUri_",
                    "type": "string"
                }
            ],
            "stateMutability": "nonpayable",
            "type": "constructor"
        },
        {
            "inputs": [],
            "name": "AddressZero",
            "type": "error"
        },
        {
            "inputs": [
                {
                    "internalType": "address",
                    "name": "account",
                    "type": "address"
                },
                {
                    "internalType": "uint256",
                    "name": "id",
                    "type": "uint256"
                }
            ],
            "name": "AlreadyAsignee",
            "type": "error"
        },
        {
            "inputs": [
                {
                    "internalType": "address",
                    "name": "account",
                    "type": "address"
                },
                {
                    "internalType": "uint256",
                    "name": "id",
                    "type": "uint256"
                }
            ],
            "name": "NotOwner",
            "type": "error"
        },
        {
            "inputs": [
                {
                    "internalType": "bytes",
                    "name": "params",
                    "type": "bytes"
                }
            ],
            "name": "Unsupported",
            "type": "error"
        },
        {
            "anonymous": false,
            "inputs": [
                {
                    "indexed": true,
                    "internalType": "address",
                    "name": "account",
                    "type": "address"
                },
                {
                    "indexed": true,
                    "internalType": "address",
                    "name": "operator",
                    "type": "address"
                },
                {
                    "indexed": false,
                    "internalType": "bool",
                    "name": "approved",
                    "type": "bool"
                }
            ],
            "name": "ApprovalForAll",
            "type": "event"
        },
        {
            "anonymous": false,
            "inputs": [
                {
                    "indexed": true,
                    "internalType": "address",
                    "name": "operator",
                    "type": "address"
                },
                {
                    "indexed": true,
                    "internalType": "address",
                    "name": "newOwner",
                    "type": "address"
                },
                {
                    "indexed": false,
                    "internalType": "uint256",
                    "name": "id",
                    "type": "uint256"
                }
            ],
            "name": "TokenClaimed",
            "type": "event"
        },
        {
            "anonymous": false,
            "inputs": [
                {
                    "indexed": true,
                    "internalType": "address",
                    "name": "operator",
                    "type": "address"
                },
                {
                    "indexed": true,
                    "internalType": "address",
                    "name": "from",
                    "type": "address"
                },
                {
                    "indexed": true,
                    "internalType": "address",
                    "name": "to",
                    "type": "address"
                },
                {
                    "indexed": false,
                    "internalType": "uint256[]",
                    "name": "ids",
                    "type": "uint256[]"
                },
                {
                    "indexed": false,
                    "internalType": "uint256[]",
                    "name": "values",
                    "type": "uint256[]"
                }
            ],
            "name": "TransferBatch",
            "type": "event"
        },
        {
            "anonymous": false,
            "inputs": [
                {
                    "indexed": true,
                    "internalType": "address",
                    "name": "from",
                    "type": "address"
                },
                {
                    "indexed": true,
                    "internalType": "address[]",
                    "name": "to",
                    "type": "address[]"
                },
                {
                    "indexed": true,
                    "internalType": "uint256",
                    "name": "id",
                    "type": "uint256"
                }
            ],
            "name": "TransferMulti",
            "type": "event"
        },
        {
            "anonymous": false,
            "inputs": [
                {
                    "indexed": true,
                    "internalType": "address",
                    "name": "operator",
                    "type": "address"
                },
                {
                    "indexed": true,
                    "internalType": "address",
                    "name": "from",
                    "type": "address"
                },
                {
                    "indexed": true,
                    "internalType": "address",
                    "name": "to",
                    "type": "address"
                },
                {
                    "indexed": false,
                    "internalType": "uint256",
                    "name": "id",
                    "type": "uint256"
                },
                {
                    "indexed": false,
                    "internalType": "uint256",
                    "name": "value",
                    "type": "uint256"
                }
            ],
            "name": "TransferSingle",
            "type": "event"
        },
        {
            "anonymous": false,
            "inputs": [
                {
                    "indexed": false,
                    "internalType": "string",
                    "name": "value",
                    "type": "string"
                },
                {
                    "indexed": true,
                    "internalType": "uint256",
                    "name": "id",
                    "type": "uint256"
                }
            ],
            "name": "URI",
            "type": "event"
        },
        {
            "inputs": [],
            "name": "_contractUri",
            "outputs": [
                {
                    "internalType": "string",
                    "name": "",
                    "type": "string"
                }
            ],
            "stateMutability": "view",
            "type": "function"
        },
        {
            "inputs": [
                {
                    "internalType": "address",
                    "name": "account",
                    "type": "address"
                },
                {
                    "internalType": "uint256",
                    "name": "id",
                    "type": "uint256"
                }
            ],
            "name": "balanceOf",
            "outputs": [
                {
                    "internalType": "uint256",
                    "name": "",
                    "type": "uint256"
                }
            ],
            "stateMutability": "view",
            "type": "function"
        },
        {
            "inputs": [
                {
                    "internalType": "address[]",
                    "name": "accounts",
                    "type": "address[]"
                },
                {
                    "internalType": "uint256[]",
                    "name": "ids",
                    "type": "uint256[]"
                }
            ],
            "name": "balanceOfBatch",
            "outputs": [
                {
                    "internalType": "uint256[]",
                    "name": "",
                    "type": "uint256[]"
                }
            ],
            "stateMutability": "view",
            "type": "function"
        },
        {
            "inputs": [
                {
                    "internalType": "uint256",
                    "name": "id",
                    "type": "uint256"
                }
            ],
            "name": "burn",
            "outputs": [],
            "stateMutability": "nonpayable",
            "type": "function"
        },
        {
            "inputs": [
                {
                    "internalType": "uint256",
                    "name": "id",
                    "type": "uint256"
                },
                {
                    "internalType": "bool",
                    "name": "_action",
                    "type": "bool"
                }
            ],
            "name": "claimOrReject",
            "outputs": [],
            "stateMutability": "nonpayable",
            "type": "function"
        },
        {
            "inputs": [],
            "name": "contractUri",
            "outputs": [
                {
                    "internalType": "string",
                    "name": "",
                    "type": "string"
                }
            ],
            "stateMutability": "view",
            "type": "function"
        },
        {
            "inputs": [
                {
                    "internalType": "address",
                    "name": "account",
                    "type": "address"
                },
                {
                    "internalType": "address",
                    "name": "operator",
                    "type": "address"
                }
            ],
            "name": "isApprovedForAll",
            "outputs": [
                {
                    "internalType": "bool",
                    "name": "",
                    "type": "bool"
                }
            ],
            "stateMutability": "view",
            "type": "function"
        },
        {
            "inputs": [
                {
                    "internalType": "string",
                    "name": "data",
                    "type": "string"
                }
            ],
            "name": "mint",
            "outputs": [],
            "stateMutability": "nonpayable",
            "type": "function"
        },
        {
            "inputs": [
                {
                    "internalType": "address",
                    "name": "account",
                    "type": "address"
                }
            ],
            "name": "mintedBy",
            "outputs": [
                {
                    "internalType": "uint256[]",
                    "name": "",
                    "type": "uint256[]"
                }
            ],
            "stateMutability": "view",
            "type": "function"
        },
        {
            "inputs": [
                {
                    "internalType": "address",
                    "name": "account",
                    "type": "address"
                }
            ],
            "name": "mintedByURIS",
            "outputs": [
                {
                    "internalType": "string[]",
                    "name": "",
                    "type": "string[]"
                }
            ],
            "stateMutability": "view",
            "type": "function"
        },
        {
            "inputs": [],
            "name": "name",
            "outputs": [
                {
                    "internalType": "string",
                    "name": "",
                    "type": "string"
                }
            ],
            "stateMutability": "view",
            "type": "function"
        },
        {
            "inputs": [
                {
                    "internalType": "address",
                    "name": "account",
                    "type": "address"
                }
            ],
            "name": "pendingFrom",
            "outputs": [
                {
                    "internalType": "uint256[]",
                    "name": "",
                    "type": "uint256[]"
                }
            ],
            "stateMutability": "view",
            "type": "function"
        },
        {
            "inputs": [
                {
                    "internalType": "address",
                    "name": "account",
                    "type": "address"
                }
            ],
            "name": "pendingURIFrom",
            "outputs": [
                {
                    "internalType": "string[]",
                    "name": "",
                    "type": "string[]"
                }
            ],
            "stateMutability": "view",
            "type": "function"
        },
        {
            "inputs": [
                {
                    "internalType": "address",
                    "name": "from",
                    "type": "address"
                },
                {
                    "internalType": "address",
                    "name": "to",
                    "type": "address"
                },
                {
                    "internalType": "uint256[]",
                    "name": "ids",
                    "type": "uint256[]"
                },
                {
                    "internalType": "uint256[]",
                    "name": "amounts",
                    "type": "uint256[]"
                },
                {
                    "internalType": "bytes",
                    "name": "data",
                    "type": "bytes"
                }
            ],
            "name": "safeBatchTransferFrom",
            "outputs": [],
            "stateMutability": "pure",
            "type": "function"
        },
        {
            "inputs": [
                {
                    "internalType": "address",
                    "name": "from",
                    "type": "address"
                },
                {
                    "internalType": "address[]",
                    "name": "to",
                    "type": "address[]"
                },
                {
                    "internalType": "uint256",
                    "name": "id",
                    "type": "uint256"
                }
            ],
            "name": "safeMultiTransfer",
            "outputs": [],
            "stateMutability": "nonpayable",
            "type": "function"
        },
        {
            "inputs": [
                {
                    "internalType": "address",
                    "name": "from",
                    "type": "address"
                },
                {
                    "internalType": "address",
                    "name": "to",
                    "type": "address"
                },
                {
                    "internalType": "uint256",
                    "name": "id",
                    "type": "uint256"
                },
                {
                    "internalType": "uint256",
                    "name": "amount",
                    "type": "uint256"
                },
                {
                    "internalType": "bytes",
                    "name": "data",
                    "type": "bytes"
                }
            ],
            "name": "safeTransferFrom",
            "outputs": [],
            "stateMutability": "nonpayable",
            "type": "function"
        },
        {
            "inputs": [
                {
                    "internalType": "address",
                    "name": "operator",
                    "type": "address"
                },
                {
                    "internalType": "bool",
                    "name": "approved",
                    "type": "bool"
                }
            ],
            "name": "setApprovalForAll",
            "outputs": [],
            "stateMutability": "nonpayable",
            "type": "function"
        },
        {
            "inputs": [
                {
                    "internalType": "bytes4",
                    "name": "interfaceId",
                    "type": "bytes4"
                }
            ],
            "name": "supportsInterface",
            "outputs": [
                {
                    "internalType": "bool",
                    "name": "",
                    "type": "bool"
                }
            ],
            "stateMutability": "view",
            "type": "function"
        },
        {
            "inputs": [],
            "name": "symbol",
            "outputs": [
                {
                    "internalType": "string",
                    "name": "",
                    "type": "string"
                }
            ],
            "stateMutability": "view",
            "type": "function"
        },
        {
            "inputs": [
                {
                    "internalType": "address",
                    "name": "account",
                    "type": "address"
                }
            ],
            "name": "tokensFrom",
            "outputs": [
                {
                    "internalType": "uint256[]",
                    "name": "",
                    "type": "uint256[]"
                }
            ],
            "stateMutability": "view",
            "type": "function"
        },
        {
            "inputs": [
                {
                    "internalType": "address",
                    "name": "account",
                    "type": "address"
                }
            ],
            "name": "tokensURIFrom",
            "outputs": [
                {
                    "internalType": "string[]",
                    "name": "",
                    "type": "string[]"
                }
            ],
            "stateMutability": "view",
            "type": "function"
        },
        {
            "inputs": [
                {
                    "internalType": "uint256",
                    "name": "_id",
                    "type": "uint256"
                }
            ],
            "name": "uri",
            "outputs": [
                {
                    "internalType": "string",
                    "name": "",
                    "type": "string"
                }
            ],
            "stateMutability": "view",
            "type": "function"
        }
    ],
    "bytecode": "60806040523480156200001157600080fd5b50604051620026a5380380620026a58339810160408190526200003491620001f2565b835184906200004b90600190602084019062000099565b505082516200006290600590602086019062000099565b5081516200007890600690602085019062000099565b5080516200008e90600790602084019062000099565b5050505050620002f9565b828054620000a790620002a6565b90600052602060002090601f016020900481019282620000cb576000855562000116565b82601f10620000e657805160ff191683800117855562000116565b8280016001018555821562000116579182015b8281111562000116578251825591602001919060010190620000f9565b506200012492915062000128565b5090565b5b8082111562000124576000815560010162000129565b600082601f83011262000150578081fd5b81516001600160401b03808211156200016d576200016d620002e3565b604051601f8301601f19908116603f01168101908282118183101715620001985762000198620002e3565b81604052838152602092508683858801011115620001b4578485fd5b8491505b83821015620001d75785820183015181830184015290820190620001b8565b83821115620001e857848385830101525b9695505050505050565b6000806000806080858703121562000208578384fd5b84516001600160401b03808211156200021f578586fd5b6200022d888389016200013f565b9550602087015191508082111562000243578485fd5b62000251888389016200013f565b9450604087015191508082111562000267578384fd5b62000275888389016200013f565b935060608701519150808211156200028b578283fd5b506200029a878288016200013f565b91505092959194509250565b600181811c90821680620002bb57607f821691505b60208210811415620002dd57634e487b7160e01b600052602260045260246000fd5b50919050565b634e487b7160e01b600052604160045260246000fd5b61239c80620003096000396000f3fe608060405234801561001057600080fd5b50600436106101415760003560e01c806395d89b41116100b8578063d9ce2f6d1161007c578063d9ce2f6d146102a1578063e985e9c5146102a9578063eca64632146102bc578063f04c4e44146102cf578063f242432a146102e2578063fab1a16d146102f557600080fd5b806395d89b4114610258578063a22cb46514610260578063c0e24d5e14610273578063d650e6971461027b578063d85d3d271461028e57600080fd5b80632eb2c2d61161010a5780632eb2c2d6146101d75780633cef28d2146101ec57806342966c68146101ff5780634e1273f4146102125780638e30b7d0146102255780638f1342c11461024557600080fd5b8062fdd58e1461014657806301ffc9a71461016c57806304c532461461018f57806306fdde03146101af5780630e89341c146101c4575b600080fd5b610159610154366004611d70565b610308565b6040519081526020015b60405180910390f35b61017f61017a366004611df9565b61036f565b6040519015158152602001610163565b6101a261019d366004611ba0565b6103da565b6040516101639190612144565b6101b7610527565b6040516101639190612188565b6101b76101d2366004611e7e565b6105b5565b6101ea6101e5366004611bec565b6105f6565b005b6101a26101fa366004611ba0565b61063f565b6101ea61020d366004611e7e565b6106d2565b6101a2610220366004611d99565b6106df565b610238610233366004611ba0565b610826565b60405161016391906120e3565b6101ea610253366004611e96565b610963565b6101b7610974565b6101ea61026e366004611d47565b610981565b6101b76109b0565b610238610289366004611ba0565b6109d8565b6101ea61029c366004611e31565b610bd0565b6101b7610c92565b61017f6102b7366004611bba565b610c9f565b6102386102ca366004611ba0565b610cd0565b6101ea6102dd366004611cf3565b610e04565b6101ea6102f0366004611c91565b610f64565b6101a2610303366004611ba0565b610fc4565b60006001600160a01b03831661033157604051639fabe1c160e01b815260040160405180910390fd5b6001600160a01b038316600090815260036020908152604080832085845290915290205460ff161561036557506001610369565b5060005b92915050565b60006001600160e01b03198216636cdb3d1360e11b14806103a057506001600160e01b031982166303a24d0760e21b145b806103bb57506001600160e01b03198216634095cfd760e11b145b8061036957506301ffc9a760e01b6001600160e01b0319831614610369565b60606001600160a01b03821661040357604051639fabe1c160e01b815260040160405180910390fd5b600060015b6000548111610451576001600160a01b038416600090815260046020908152604080832084845290915290205460ff16156104495761044682612268565b91505b600101610408565b506000816001600160401b0381111561047a57634e487b7160e01b600052604160045260246000fd5b6040519080825280602002602001820160405280156104a3578160200160208202803683370190505b50905060015b600054811161051f576001600160a01b038516600090815260046020908152604080832084845290915290205460ff16156105175780826104e9856121ea565b9450848151811061050a57634e487b7160e01b600052603260045260246000fd5b6020026020010181815250505b6001016104a9565b509392505050565b6005805461053490612201565b80601f016020809104026020016040519081016040528092919081815260200182805461056090612201565b80156105ad5780601f10610582576101008083540402835291602001916105ad565b820191906000526020600020905b81548152906001019060200180831161059057829003601f168201915b505050505081565b60606001600260008481526020019081526020016000206001016040516020016105e092919061205f565b6040516020818303038152906040529050919050565b848484848460405160200161060f959493929190611fae565b60408051601f1981840301815290829052633486a84560e11b825261063691600401612188565b60405180910390fd5b60606001600160a01b03821661066857604051639fabe1c160e01b815260040160405180910390fd5b6001600160a01b038216600090815260086020908152604091829020805483518184028101840190945280845290918301828280156106c657602002820191906000526020600020905b8154815260200190600101908083116106b2575b50505050509050919050565b6106dc3382611104565b50565b606081518351146107325760405162461bcd60e51b815260206004820181905260248201527f4163636f756e747320616e6420696473206c656e677468206d69736d617463686044820152606401610636565b600083516001600160401b0381111561075b57634e487b7160e01b600052604160045260246000fd5b604051908082528060200260200182016040528015610784578160200160208202803683370190505b50905060005b845181101561051f576107eb8582815181106107b657634e487b7160e01b600052603260045260246000fd5b60200260200101518583815181106107de57634e487b7160e01b600052603260045260246000fd5b6020026020010151610308565b82828151811061080b57634e487b7160e01b600052603260045260246000fd5b602090810291909101015261081f81612268565b905061078a565b60606001600160a01b03821661084f57604051639fabe1c160e01b815260040160405180910390fd5b600061085a83610fc4565b80519091506000816001600160401b0381111561088757634e487b7160e01b600052604160045260246000fd5b6040519080825280602002602001820160405280156108ba57816020015b60608152602001906001900390816108a55790505b50905060005b8281101561095a576001600260008684815181106108ee57634e487b7160e01b600052603260045260246000fd5b6020026020010151815260200190815260200160002060010160405160200161091892919061205f565b60405160208183030381529060405282828151811061094757634e487b7160e01b600052603260045260246000fd5b60209081029190910101526001016108c0565b50949350505050565b3361096f818385611205565b505050565b6006805461053490612201565b6040516bffffffffffffffffffffffff19606084901b16602082015281151560f81b603482015260350161060f565b606060076040516020016109c49190612074565b604051602081830303815290604052905090565b60606001600160a01b038216610a0157604051639fabe1c160e01b815260040160405180910390fd5b6001600160a01b038216600090815260086020908152604080832080548251818502810185019093528083529192909190830182828015610a6157602002820191906000526020600020905b815481526020019060010190808311610a4d575b505050505090506000815190506000816001600160401b03811115610a9657634e487b7160e01b600052604160045260246000fd5b604051908082528060200260200182016040528015610ac957816020015b6060815260200190600190039081610ab45790505b50905060005b8281101561095a5760026000858381518110610afb57634e487b7160e01b600052603260045260246000fd5b602002602001015181526020019081526020016000206001018054610b1f90612201565b80601f0160208091040260200160405190810160405280929190818152602001828054610b4b90612201565b8015610b985780601f10610b6d57610100808354040283529160200191610b98565b820191906000526020600020905b815481529060010190602001808311610b7b57829003601f168201915b5050505050828281518110610bbd57634e487b7160e01b600052603260045260246000fd5b6020908102919091010152600101610acf565b7fc5d2460186f7233c927e7db2dcc703c0e500b653ca82273b7bfad8045d85a47081604051602001610c029190612043565b604051602081830303815290604052805190602001201415610c565760405162461bcd60e51b815260206004820152600d60248201526c4461746120697320656d70747960981b6044820152606401610636565b33610c618183611337565b6001600160a01b03166000908152600860209081526040822082548154600181018355918452919092209091015550565b6007805461053490612201565b6040516bffffffffffffffffffffffff19606084811b8216602084015283901b16603482015260009060480161060f565b60606001600160a01b038216610cf957604051639fabe1c160e01b815260040160405180910390fd5b6000610d04836103da565b80519091506000816001600160401b03811115610d3157634e487b7160e01b600052604160045260246000fd5b604051908082528060200260200182016040528015610d6457816020015b6060815260200190600190039081610d4f5790505b50905060005b8281101561095a57600160026000868481518110610d9857634e487b7160e01b600052603260045260246000fd5b60200260200101518152602001908152602001600020600101604051602001610dc292919061205f565b604051602081830303815290604052828281518110610df157634e487b7160e01b600052603260045260246000fd5b6020908102919091010152600101610d6a565b6000818152600260205260409020546001600160a01b03848116911614610e5057604051636f7f64bf60e01b81526001600160a01b038416600482015260248101829052604401610636565b815160005b81811015610f52576000848281518110610e7f57634e487b7160e01b600052603260045260246000fd5b6020026020010151905060006001600160a01b0316816001600160a01b03161415610ebd57604051639fabe1c160e01b815260040160405180910390fd5b6001600160a01b038116600090815260046020908152604080832087845290915290205460ff16151560011480610f1c57506001600160a01b038116600090815260036020908152604080832087845290915290205460ff1615156001145b15610f4c57604051632dd97a9360e21b81526001600160a01b038216600482015260248101859052604401610636565b50610e55565b50610f5e84848461140e565b50505050565b6000838152600260205260409020546001600160a01b03868116911614610fb057604051636f7f64bf60e01b81526001600160a01b038616600482015260248101849052604401610636565b610fbd8585858585611572565b5050505050565b60606001600160a01b038216610fed57604051639fabe1c160e01b815260040160405180910390fd5b600060015b6000548111611036576001600160a01b038416600090815260036020908152604080832084845290915290205460ff161561102e578160010191505b600101610ff2565b506000816001600160401b0381111561105f57634e487b7160e01b600052604160045260246000fd5b604051908082528060200260200182016040528015611088578160200160208202803683370190505b50905060015b600054811161051f576001600160a01b038516600090815260036020908152604080832084845290915290205460ff16156110fc5780826110ce856121ea565b945084815181106110ef57634e487b7160e01b600052603260045260246000fd5b6020026020010181815250505b60010161108e565b6001600160a01b038216600090815260036020908152604080832084845290915290205460ff1661115a57604051636f7f64bf60e01b81526001600160a01b038316600482015260248101829052604401610636565b33600061116683611768565b905060006111746001611768565b60408051602081019091526000905290506001600160a01b0385811660009081526003602090815260408083208884528252808320805460ff191690558051888152600192810192909252919286169182917fc3d58168c5ae7397731d063d5bbf3d657854427343f4c083240f7aacaa2d0f62910160405180910390a4604080516020810190915260009052610fbd565b6001600160a01b038316600090815260046020908152604080832084845290915290205460ff16158061126057506001600160a01b038316600090815260036020908152604080832084845290915290205460ff1615156001145b1561129d5760405162461bcd60e51b815260206004820152600d60248201526c4e6f7420636c61696d61626c6560981b6044820152606401610636565b600082156112ac5750826112b0565b5060005b6001600160a01b0384811660008181526003602090815260408083208784528252808320805460ff199081168a1515179091558484526004835281842088855283529281902080549093169092559051858152928416927f4831bdd9dcf3048a28319ce81d3cab7a15366bcf449bc7803a539107440809cc910160405180910390a3610f5e565b6000805460010180825533919061134d90611768565b9050600061135b6001611768565b9050836040805180820182526001600160a01b03888116825260208083018981526000805481526002835294909420835181546001600160a01b031916931692909217825592518051929391926113b89260018501920190611976565b50506000805460408051918252600160208301526001600160a01b038816935083917fc3d58168c5ae7397731d063d5bbf3d657854427343f4c083240f7aacaa2d0f62910160405180910390a45b505050505050565b6000818152600260205260409020546001600160a01b0384811691161461145a57604051636f7f64bf60e01b81526001600160a01b038416600482015260248101829052604401610636565b815133600061146884611768565b905060006114766001611768565b905060005b8481101561151e5760008782815181106114a557634e487b7160e01b600052603260045260246000fd5b602090810291909101810151604080519283019052600090915290506001600160a01b03811660009081526004602090815260408083208a84528252808320805460ff191660011790558051918201905252611515858a838a6001604051806020016040528060008152506117c1565b5060010161147b565b50848660405161152e9190612004565b604051908190038120906001600160a01b038a16907fa18b0361497be7c196d41cc127306c8890e5d178e22f28910ab0b59b780b9d1690600090a450505050505050565b6000838152600260205260409020546001600160a01b038681169116146115be57604051636f7f64bf60e01b81526001600160a01b038616600482015260248101849052604401610636565b6001600160a01b0384166115e557604051639fabe1c160e01b815260040160405180910390fd5b6001600160a01b038416600090815260046020908152604080832086845290915290205460ff1615156001148061164457506001600160a01b038416600090815260036020908152604080832086845290915290205460ff1615156001145b1561167457604051632dd97a9360e21b81526001600160a01b038516600482015260248101849052604401610636565b816001146116c45760405162461bcd60e51b815260206004820152601b60248201527f43616e206f6e6c79207472616e73666572206f6e6520746f6b656e00000000006044820152606401610636565b3360006116d085611768565b905060006116dd85611768565b6001600160a01b0388811660008181526004602090815260408083208c84528252808320805460ff19166001179055915482519081529081018a905293945090928b8316928716917fc3d58168c5ae7397731d063d5bbf3d657854427343f4c083240f7aacaa2d0f62910160405180910390a461175e8389898989896117c1565b5050505050505050565b604080516001808252818301909252606091600091906020808301908036833701905050905082816000815181106117b057634e487b7160e01b600052603260045260246000fd5b602090810291909101015292915050565b6001600160a01b0384163b156114065760405163f23a6e6160e01b81526001600160a01b0385169063f23a6e6190611805908990899088908890889060040161209e565b602060405180830381600087803b15801561181f57600080fd5b505af192505050801561184f575060408051601f3d908101601f1916820190925261184c91810190611e15565b60015b6118fc5761185b6122af565b806308c379a0141561189557506118706122c7565b8061187b5750611897565b8060405162461bcd60e51b81526004016106369190612188565b505b60405162461bcd60e51b815260206004820152603460248201527f455243313135353a207472616e7366657220746f206e6f6e2d455243313135356044820152732932b1b2b4bb32b91034b6b83632b6b2b73a32b960611b6064820152608401610636565b6001600160e01b0319811663f23a6e6160e01b1461196d5760405162461bcd60e51b815260206004820152602860248201527f455243313135353a204552433131353552656365697665722072656a656374656044820152676420746f6b656e7360c01b6064820152608401610636565b50505050505050565b82805461198290612201565b90600052602060002090601f0160209004810192826119a457600085556119ea565b82601f106119bd57805160ff19168380011785556119ea565b828001600101855582156119ea579182015b828111156119ea5782518255916020019190600101906119cf565b506119f69291506119fa565b5090565b5b808211156119f657600081556001016119fb565b60006001600160401b03831115611a2857611a28612299565b604051611a3f601f8501601f19166020018261223c565b809150838152848484011115611a5457600080fd5b83836020830137600060208583010152509392505050565b80356001600160a01b0381168114611a8357600080fd5b919050565b600082601f830112611a98578081fd5b81356020611aa58261219b565b604051611ab2828261223c565b8381528281019150858301600585901b87018401881015611ad1578586fd5b855b85811015611af657611ae482611a6c565b84529284019290840190600101611ad3565b5090979650505050505050565b600082601f830112611b13578081fd5b81356020611b208261219b565b604051611b2d828261223c565b8381528281019150858301600585901b87018401881015611b4c578586fd5b855b85811015611af657813584529284019290840190600101611b4e565b80358015158114611a8357600080fd5b600082601f830112611b8a578081fd5b611b9983833560208501611a0f565b9392505050565b600060208284031215611bb1578081fd5b611b9982611a6c565b60008060408385031215611bcc578081fd5b611bd583611a6c565b9150611be360208401611a6c565b90509250929050565b600080600080600060a08688031215611c03578081fd5b611c0c86611a6c565b9450611c1a60208701611a6c565b935060408601356001600160401b0380821115611c35578283fd5b611c4189838a01611b03565b94506060880135915080821115611c56578283fd5b611c6289838a01611b03565b93506080880135915080821115611c77578283fd5b50611c8488828901611b7a565b9150509295509295909350565b600080600080600060a08688031215611ca8578081fd5b611cb186611a6c565b9450611cbf60208701611a6c565b9350604086013592506060860135915060808601356001600160401b03811115611ce7578182fd5b611c8488828901611b7a565b600080600060608486031215611d07578283fd5b611d1084611a6c565b925060208401356001600160401b03811115611d2a578283fd5b611d3686828701611a88565b925050604084013590509250925092565b60008060408385031215611d59578182fd5b611d6283611a6c565b9150611be360208401611b6a565b60008060408385031215611d82578182fd5b611d8b83611a6c565b946020939093013593505050565b60008060408385031215611dab578182fd5b82356001600160401b0380821115611dc1578384fd5b611dcd86838701611a88565b93506020850135915080821115611de2578283fd5b50611def85828601611b03565b9150509250929050565b600060208284031215611e0a578081fd5b8135611b9981612350565b600060208284031215611e26578081fd5b8151611b9981612350565b600060208284031215611e42578081fd5b81356001600160401b03811115611e57578182fd5b8201601f81018413611e67578182fd5b611e7684823560208401611a0f565b949350505050565b600060208284031215611e8f578081fd5b5035919050565b60008060408385031215611ea8578182fd5b82359150611be360208401611b6a565b600081516020808401835b83811015611edf57815187529582019590820190600101611ec3565b509495945050505050565b60008151808452611f028160208601602086016121be565b601f01601f19169290920160200192915050565b8054600090600181811c9080831680611f3057607f831692505b6020808410821415611f5057634e487b7160e01b86526022600452602486fd5b818015611f645760018114611f7557611fa2565b60ff19861689528489019650611fa2565b60008881526020902060005b86811015611f9a5781548b820152908501908301611f81565b505084890196505b50505050505092915050565b60006bffffffffffffffffffffffff19808860601b168352808760601b16601484015250611fe8611fe26028840187611eb8565b85611eb8565b8351611ff88183602088016121be565b01979650505050505050565b815160009082906020808601845b838110156120375781516001600160a01b031685529382019390820190600101612012565b50929695505050505050565b600082516120558184602087016121be565b9190910192915050565b6000611e7661206e8386611f16565b84611f16565b7468747470733a2f2f697066732e696f2f697066732f60581b81526000611b996015830184611f16565b6001600160a01b03868116825285166020820152604081018490526060810183905260a0608082018190526000906120d890830184611eea565b979650505050505050565b6000602080830181845280855180835260408601915060408160051b8701019250838701855b8281101561213757603f19888603018452612125858351611eea565b94509285019290850190600101612109565b5092979650505050505050565b6020808252825182820181905260009190848201906040850190845b8181101561217c57835183529284019291840191600101612160565b50909695505050505050565b602081526000611b996020830184611eea565b60006001600160401b038211156121b4576121b4612299565b5060051b60200190565b60005b838110156121d95781810151838201526020016121c1565b83811115610f5e5750506000910152565b6000816121f9576121f9612283565b506000190190565b600181811c9082168061221557607f821691505b6020821081141561223657634e487b7160e01b600052602260045260246000fd5b50919050565b601f8201601f191681016001600160401b038111828210171561226157612261612299565b6040525050565b600060001982141561227c5761227c612283565b5060010190565b634e487b7160e01b600052601160045260246000fd5b634e487b7160e01b600052604160045260246000fd5b600060033d11156122c457600481823e5160e01c5b90565b600060443d10156122d55790565b6040516003193d81016004833e81513d6001600160401b03816024840111818411171561230457505050505090565b828501915081518181111561231c5750505050505090565b843d87010160208285010111156123365750505050505090565b6123456020828601018761223c565b509095945050505050565b6001600160e01b0319811681146106dc57600080fdfea2646970667358221220ec68720216f1ffd10c3fc58b531adb80215e60d3787a9931777a6a1daa1caca864736f6c63430008040033",
    "sourcePath": "d:/Proyectos/Zerti/contracts/SBT/Badge.sol",
    "compiler": {
        "name": "solc",
        "version": "0.8.4+commit.c7e474f2"
    },
    "functionHashes": {
        "_contractUri()": "d9ce2f6d",
        "balanceOf(address,uint256)": "00fdd58e",
        "balanceOfBatch(address[],uint256[])": "4e1273f4",
        "burn(uint256)": "42966c68",
        "claimOrReject(uint256,bool)": "8f1342c1",
        "contractUri()": "c0e24d5e",
        "isApprovedForAll(address,address)": "e985e9c5",
        "mint(string)": "d85d3d27",
        "mintedBy(address)": "3cef28d2",
        "mintedByURIS(address)": "d650e697",
        "name()": "06fdde03",
        "pendingFrom(address)": "04c53246",
        "pendingURIFrom(address)": "eca64632",
        "safeBatchTransferFrom(address,address,uint256[],uint256[],bytes)": "2eb2c2d6",
        "safeMultiTransfer(address,address[],uint256)": "f04c4e44",
        "safeTransferFrom(address,address,uint256,uint256,bytes)": "f242432a",
        "setApprovalForAll(address,bool)": "a22cb465",
        "supportsInterface(bytes4)": "01ffc9a7",
        "symbol()": "95d89b41",
        "tokensFrom(address)": "fab1a16d",
        "tokensURIFrom(address)": "8e30b7d0",
        "uri(uint256)": "0e89341c"
    },
    "gasEstimates": {
        "creation": {
            "codeDepositCost": "1823200",
            "executionCost": "infinite",
            "totalCost": "infinite"
        },
        "external": {
            "_contractUri()": "infinite",
            "balanceOf(address,uint256)": "1442",
            "balanceOfBatch(address[],uint256[])": "infinite",
            "burn(uint256)": "infinite",
            "claimOrReject(uint256,bool)": "46303",
            "contractUri()": "infinite",
            "isApprovedForAll(address,address)": "infinite",
            "mint(string)": "infinite",
            "mintedBy(address)": "infinite",
            "mintedByURIS(address)": "infinite",
            "name()": "infinite",
            "pendingFrom(address)": "infinite",
            "pendingURIFrom(address)": "infinite",
            "safeBatchTransferFrom(address,address,uint256[],uint256[],bytes)": "infinite",
            "safeMultiTransfer(address,address[],uint256)": "infinite",
            "safeTransferFrom(address,address,uint256,uint256,bytes)": "infinite",
            "setApprovalForAll(address,bool)": "infinite",
            "supportsInterface(bytes4)": "633",
            "symbol()": "infinite",
            "tokensFrom(address)": "infinite",
            "tokensURIFrom(address)": "infinite",
            "uri(uint256)": "infinite"
        }
    }
}