{
  "contractName": "Store",
  "abi": [
    {
      "constant": true,
      "inputs": [],
      "name": "value",
      "outputs": [
        {
          "name": "",
          "type": "string"
        }
      ],
      "payable": false,
      "stateMutability": "view",
      "type": "function",
      "signature": "0x3fa4f245"
    },
    {
      "constant": false,
      "inputs": [
        {
          "name": "newValue",
          "type": "string"
        }
      ],
      "name": "setValue",
      "outputs": [],
      "payable": false,
      "stateMutability": "nonpayable",
      "type": "function",
      "signature": "0x93a09352"
    }
  ],
  "bytecode": "0x608060405234801561001057600080fd5b506102bc806100206000396000f3fe608060405234801561001057600080fd5b50600436106100365760003560e01c80633fa4f2451461003b57806393a09352146100be575b600080fd5b610043610137565b6040518080602001828103825283818151815260200191508051906020019080838360005b83811015610083578082015181840152602081019050610068565b50505050905090810190601f1680156100b05780820380516001836020036101000a031916815260200191505b509250505060405180910390f35b610135600480360360208110156100d457600080fd5b81019080803590602001906401000000008111156100f157600080fd5b82018360208201111561010357600080fd5b8035906020019184600183028401116401000000008311171561012557600080fd5b90919293919293905050506101d5565b005b60008054600181600116156101000203166002900480601f0160208091040260200160405190810160405280929190818152602001828054600181600116156101000203166002900480156101cd5780601f106101a2576101008083540402835291602001916101cd565b820191906000526020600020905b8154815290600101906020018083116101b057829003601f168201915b505050505081565b8181600091906101e69291906101eb565b505050565b828054600181600116156101000203166002900490600052602060002090601f016020900481019282601f1061022c57803560ff191683800117855561025a565b8280016001018555821561025a579182015b8281111561025957823582559160200191906001019061023e565b5b509050610267919061026b565b5090565b61028d91905b80821115610289576000816000905550600101610271565b5090565b9056fea165627a7a723058207c124cd21ef3134d0ca7711d0a3315a1d77f1dcaa8567c19801f2cb3ad1fa29e0029",
  "source": "pragma solidity ^0.5.3;\r\n\r\ncontract Store {\r\n  string public value;\r\n\r\n  function setValue(string calldata newValue) external {\r\n    value = newValue;\r\n  }\r\n}",
  "sourcePath": "C:\\Users\\46288329\\Documents\\Zerti\\contracts\\Store.sol",
  "compiler": {
    "name": "solc",
    "version": "0.5.3+commit.10d17f24.Emscripten.clang"
  },
  "schemaVersion": "3.0.1",
  "updatedAt": "2022-06-09T18:42:25.530Z",
  "devdoc": {
    "methods": {}
  },
  "userdoc": {
    "methods": {}
  }
}