{
  "contractName": "Store",
  "abi": [
    {
      "constant": true,
      "inputs": [],
      "name": "value",
      "outputs": [
        {
          "name": "",
          "type": "string"
        }
      ],
      "payable": false,
      "stateMutability": "view",
      "type": "function"
    },
    {
      "constant": false,
      "inputs": [
        {
          "name": "newValue",
          "type": "string"
        }
      ],
      "name": "setValue",
      "outputs": [],
      "payable": false,
      "stateMutability": "nonpayable",
      "type": "function"
    }
  ],
  "bytecode": "0x608060405234801561001057600080fd5b506102d9806100206000396000f3fe608060405234801561001057600080fd5b5060043610610053576000357c0100000000000000000000000000000000000000000000000000000000900480633fa4f2451461005857806393a09352146100db575b600080fd5b610060610154565b6040518080602001828103825283818151815260200191508051906020019080838360005b838110156100a0578082015181840152602081019050610085565b50505050905090810190601f1680156100cd5780820380516001836020036101000a031916815260200191505b509250505060405180910390f35b610152600480360360208110156100f157600080fd5b810190808035906020019064010000000081111561010e57600080fd5b82018360208201111561012057600080fd5b8035906020019184600183028401116401000000008311171561014257600080fd5b90919293919293905050506101f2565b005b60008054600181600116156101000203166002900480601f0160208091040260200160405190810160405280929190818152602001828054600181600116156101000203166002900480156101ea5780601f106101bf576101008083540402835291602001916101ea565b820191906000526020600020905b8154815290600101906020018083116101cd57829003601f168201915b505050505081565b818160009190610203929190610208565b505050565b828054600181600116156101000203166002900490600052602060002090601f016020900481019282601f1061024957803560ff1916838001178555610277565b82800160010185558215610277579182015b8281111561027657823582559160200191906001019061025b565b5b5090506102849190610288565b5090565b6102aa91905b808211156102a657600081600090555060010161028e565b5090565b9056fea165627a7a7230582065c18f91f7076a55aa85dc65e90cd03bcb73d4195dd7636fdc0b268e5381d8990029",
  "source": "pragma solidity ^0.5.3;\r\n\r\ncontract Store {\r\n  string public value;\r\n\r\n  function setValue(string calldata newValue) external {\r\n    value = newValue;\r\n  }\r\n}",
  "sourcePath": "D:\\Proyectos\\Zerti\\contracts\\Store.sol",
  "compiler": {
    "name": "solc",
    "version": "0.5.3+commit.10d17f24.Emscripten.clang"
  },
  "schemaVersion": "3.4.7",
  "updatedAt": "2022-06-08T22:18:14.551Z",
  "networkType": "ethereum",
  "devdoc": {
    "methods": {}
  },
  "userdoc": {
    "methods": {}
  }
}