{
  "contractName": "Vote",
  "abi": [
    {
      "constant": true,
      "inputs": [],
      "name": "canVote",
      "outputs": [
        {
          "name": "",
          "type": "bool"
        }
      ],
      "payable": false,
      "stateMutability": "view",
      "type": "function",
      "signature": "0x159e7064"
    },
    {
      "constant": true,
      "inputs": [],
      "name": "NoVotes",
      "outputs": [
        {
          "name": "",
          "type": "uint16"
        }
      ],
      "payable": false,
      "stateMutability": "view",
      "type": "function",
      "signature": "0x198e1630"
    },
    {
      "constant": true,
      "inputs": [],
      "name": "value",
      "outputs": [
        {
          "name": "",
          "type": "string"
        }
      ],
      "payable": false,
      "stateMutability": "view",
      "type": "function",
      "signature": "0x3fa4f245"
    },
    {
      "constant": true,
      "inputs": [],
      "name": "impl",
      "outputs": [
        {
          "name": "",
          "type": "address"
        }
      ],
      "payable": false,
      "stateMutability": "view",
      "type": "function",
      "signature": "0x8abf6077"
    },
    {
      "constant": true,
      "inputs": [],
      "name": "YesVotes",
      "outputs": [
        {
          "name": "",
          "type": "uint16"
        }
      ],
      "payable": false,
      "stateMutability": "view",
      "type": "function",
      "signature": "0xde490ee3"
    },
    {
      "constant": false,
      "inputs": [
        {
          "name": "_userVote",
          "type": "bool"
        }
      ],
      "name": "recieve",
      "outputs": [],
      "payable": true,
      "stateMutability": "payable",
      "type": "function",
      "signature": "0x251cf0a3"
    },
    {
      "constant": true,
      "inputs": [],
      "name": "getTotalDeposit",
      "outputs": [
        {
          "name": "",
          "type": "uint256"
        }
      ],
      "payable": false,
      "stateMutability": "view",
      "type": "function",
      "signature": "0xc022215c"
    }
  ],
  "bytecode": "0x608060405260018060046101000a81548160ff02191690831515021790555034801561002a57600080fd5b506106e58061003a6000396000f3fe6080604052600436106100705760003560e01c80633fa4f2451161004e5780633fa4f245146101075780638abf607714610197578063c022215c146101ee578063de490ee31461021957610070565b8063159e706414610075578063198e1630146100a4578063251cf0a3146100d7575b600080fd5b34801561008157600080fd5b5061008a61024c565b604051808215151515815260200191505060405180910390f35b3480156100b057600080fd5b506100b961025f565b604051808261ffff1661ffff16815260200191505060405180910390f35b610105600480360360208110156100ed57600080fd5b81019080803515159060200190929190505050610273565b005b34801561011357600080fd5b5061011c610590565b6040518080602001828103825283818151815260200191508051906020019080838360005b8381101561015c578082015181840152602081019050610141565b50505050905090810190601f1680156101895780820380516001836020036101000a031916815260200191505b509250505060405180910390f35b3480156101a357600080fd5b506101ac61062e565b604051808273ffffffffffffffffffffffffffffffffffffffff1673ffffffffffffffffffffffffffffffffffffffff16815260200191505060405180910390f35b3480156101fa57600080fd5b50610203610654565b6040518082815260200191505060405180910390f35b34801561022557600080fd5b5061022e610673565b604051808261ffff1661ffff16815260200191505060405180910390f35b600160049054906101000a900460ff1681565b600160029054906101000a900461ffff1681565b655af3107a4000341415156102f0576040517f08c379a00000000000000000000000000000000000000000000000000000000081526004018080602001828103825260118152602001807f53656e6420302e3030303120657468657200000000000000000000000000000081525060200191505060405180910390fd5b60011515600160049054906101000a900460ff16151514151561037b576040517f08c379a00000000000000000000000000000000000000000000000000000000081526004018080602001828103825260108152602001807f566f74696e672068617320656e6465640000000000000000000000000000000081525060200191505060405180910390fd5b60001515600260003373ffffffffffffffffffffffffffffffffffffffff1673ffffffffffffffffffffffffffffffffffffffff16815260200190815260200160002060009054906101000a900460ff1615151415156103da57600080fd5b6103e2610687565b33816000019073ffffffffffffffffffffffffffffffffffffffff16908173ffffffffffffffffffffffffffffffffffffffff16815250508181602001901515908115158152505060038190806001815401808255809150509060018203906000526020600020016000909192909190915060008201518160000160006101000a81548173ffffffffffffffffffffffffffffffffffffffff021916908373ffffffffffffffffffffffffffffffffffffffff16021790555060208201518160000160146101000a81548160ff0219169083151502179055505050506001600260003373ffffffffffffffffffffffffffffffffffffffff1673ffffffffffffffffffffffffffffffffffffffff16815260200190815260200160002060006101000a81548160ff0219169083151502179055508115610556576001600081819054906101000a900461ffff168092919060010191906101000a81548161ffff021916908361ffff1602179055505061058c565b6001600281819054906101000a900461ffff168092919060010191906101000a81548161ffff021916908361ffff160217905550505b5050565b60008054600181600116156101000203166002900480601f0160208091040260200160405190810160405280929190818152602001828054600181600116156101000203166002900480156106265780601f106105fb57610100808354040283529160200191610626565b820191906000526020600020905b81548152906001019060200180831161060957829003601f168201915b505050505081565b600160059054906101000a900473ffffffffffffffffffffffffffffffffffffffff1681565b60003073ffffffffffffffffffffffffffffffffffffffff1631905090565b600160009054906101000a900461ffff1681565b6040805190810160405280600073ffffffffffffffffffffffffffffffffffffffff168152602001600015158152509056fea165627a7a723058201535a6c4e6daa2b30ef2a648f18e8ca0c2afb6c90250320cadcdd9505308d4a50029",
  "source": "pragma solidity ^0.5.3;\r\n\r\ncontract Vote {\r\n    \r\n    string public value;\r\n    uint16 public YesVotes;\r\n    uint16 public NoVotes;\r\n    bool public canVote = true;\r\n    address public impl;\r\n\r\n\r\n\r\n    struct Voter{\r\n        address voterAddr;\r\n        bool vote;\r\n    }\r\n\r\n    mapping(address => bool) voterVoted;\r\n\r\n    Voter[] voters;\r\n\r\n    function recieve(bool _userVote) external payable {\r\n        require(msg.value==0.0001 ether,\"Send 0.0001 ether\");\r\n        require(canVote == true, \"Voting has ended\");\r\n        require(voterVoted[msg.sender] == false);\r\n\r\n        Voter memory voterReadOnly;\r\n        voterReadOnly.voterAddr = msg.sender;\r\n        voterReadOnly.vote = _userVote;\r\n        voters.push(voterReadOnly); \r\n        voterVoted[msg.sender] = true;\r\n        if(_userVote){\r\n            YesVotes++;\r\n        }else{\r\n            NoVotes++;\r\n        }\r\n    }\r\n\r\n    /*\r\n    function distributePool(bool _result) external {\r\n        require(msg.sender == address(this));\r\n        require(canVote == false);\r\n\r\n        uint16 voteWinners;\r\n\r\n        for(uint i = 0; i <voters.length;i++){\r\n            if(voters[i].vote == _result){\r\n                voteWinners++;\r\n            }\r\n        }\r\n\r\n        //uint percentajePerWinner = address(this).balance / voteWinners;\r\n    }\r\n    */\r\n\r\n    /*\r\n    function voteFinalization() external {\r\n        require(msg.sender == address(this));\r\n        require(canVote == true, \"Voting has ended\");\r\n\r\n        //canVote = false;\r\n        \r\n        if(YesVotes>NoVotes){\r\n\r\n        }\r\n    }\r\n    */\r\n\r\n    function getTotalDeposit() view external returns(uint256) {\r\n        return address(this).balance;\r\n    }\r\n\r\n}",
  "sourcePath": "C:\\Users\\46288329\\Documents\\Zerti\\contracts\\Vote.sol",
  "compiler": {
    "name": "solc",
    "version": "0.5.3+commit.10d17f24.Emscripten.clang"
  },
  "schemaVersion": "3.0.1",
  "updatedAt": "2022-06-09T18:42:27.411Z",
  "devdoc": {
    "methods": {}
  },
  "userdoc": {
    "methods": {}
  }
}