{
  "contractName": "Vote",
  "abi": [
    {
      "constant": true,
      "inputs": [],
      "name": "canVote",
      "outputs": [
        {
          "name": "",
          "type": "bool"
        }
      ],
      "payable": false,
      "stateMutability": "view",
      "type": "function"
    },
    {
      "constant": true,
      "inputs": [],
      "name": "NoVotes",
      "outputs": [
        {
          "name": "",
          "type": "uint16"
        }
      ],
      "payable": false,
      "stateMutability": "view",
      "type": "function"
    },
    {
      "constant": true,
      "inputs": [],
      "name": "value",
      "outputs": [
        {
          "name": "",
          "type": "string"
        }
      ],
      "payable": false,
      "stateMutability": "view",
      "type": "function"
    },
    {
      "constant": true,
      "inputs": [],
      "name": "YesVotes",
      "outputs": [
        {
          "name": "",
          "type": "uint16"
        }
      ],
      "payable": false,
      "stateMutability": "view",
      "type": "function"
    },
    {
      "constant": false,
      "inputs": [
        {
          "name": "_userVote",
          "type": "bool"
        }
      ],
      "name": "recieve",
      "outputs": [],
      "payable": true,
      "stateMutability": "payable",
      "type": "function"
    },
    {
      "constant": false,
      "inputs": [],
      "name": "voteFinalization",
      "outputs": [],
      "payable": false,
      "stateMutability": "nonpayable",
      "type": "function"
    },
    {
      "constant": true,
      "inputs": [],
      "name": "getTotalDeposit",
      "outputs": [
        {
          "name": "",
          "type": "uint256"
        }
      ],
      "payable": false,
      "stateMutability": "view",
      "type": "function"
    }
  ],
  "bytecode": "0x608060405234801561001057600080fd5b5061068d806100206000396000f3fe60806040526004361061008d576000357c0100000000000000000000000000000000000000000000000000000000900480633fa4f2451161006b5780633fa4f2451461012457806359020493146101b4578063c022215c146101cb578063de490ee3146101f65761008d565b8063159e706414610092578063198e1630146100c1578063251cf0a3146100f4575b600080fd5b34801561009e57600080fd5b506100a7610229565b604051808215151515815260200191505060405180910390f35b3480156100cd57600080fd5b506100d661023c565b604051808261ffff1661ffff16815260200191505060405180910390f35b6101226004803603602081101561010a57600080fd5b81019080803515159060200190929190505050610250565b005b34801561013057600080fd5b506101396104b6565b6040518080602001828103825283818151815260200191508051906020019080838360005b8381101561017957808201518184015260208101905061015e565b50505050905090810190601f1680156101a65780820380516001836020036101000a031916815260200191505b509250505060405180910390f35b3480156101c057600080fd5b506101c9610554565b005b3480156101d757600080fd5b506101e06105fc565b6040518082815260200191505060405180910390f35b34801561020257600080fd5b5061020b61061b565b604051808261ffff1661ffff16815260200191505060405180910390f35b600160049054906101000a900460ff1681565b600160029054906101000a900461ffff1681565b655af3107a4000341415156102cd576040517f08c379a00000000000000000000000000000000000000000000000000000000081526004018080602001828103825260118152602001807f53656e6420302e3030303120657468657200000000000000000000000000000081525060200191505060405180910390fd5b60011515600160049054906101000a900460ff161515141515610358576040517f08c379a00000000000000000000000000000000000000000000000000000000081526004018080602001828103825260108152602001807f566f74696e672068617320656e6465640000000000000000000000000000000081525060200191505060405180910390fd5b61036061062f565b33816000019073ffffffffffffffffffffffffffffffffffffffff16908173ffffffffffffffffffffffffffffffffffffffff16815250508181602001901515908115158152505060028190806001815401808255809150509060018203906000526020600020016000909192909190915060008201518160000160006101000a81548173ffffffffffffffffffffffffffffffffffffffff021916908373ffffffffffffffffffffffffffffffffffffffff16021790555060208201518160000160146101000a81548160ff021916908315150217905550505050811561047c576001600081819054906101000a900461ffff168092919060010191906101000a81548161ffff021916908361ffff160217905550506104b2565b6001600281819054906101000a900461ffff168092919060010191906101000a81548161ffff021916908361ffff160217905550505b5050565b60008054600181600116156101000203166002900480601f01602080910402602001604051908101604052809291908181526020018280546001816001161561010002031660029004801561054c5780601f106105215761010080835404028352916020019161054c565b820191906000526020600020905b81548152906001019060200180831161052f57829003601f168201915b505050505081565b60011515600160049054906101000a900460ff1615151415156105df576040517f08c379a00000000000000000000000000000000000000000000000000000000081526004018080602001828103825260108152602001807f566f74696e672068617320656e6465640000000000000000000000000000000081525060200191505060405180910390fd5b6000600160046101000a81548160ff021916908315150217905550565b60003073ffffffffffffffffffffffffffffffffffffffff1631905090565b600160009054906101000a900461ffff1681565b6040805190810160405280600073ffffffffffffffffffffffffffffffffffffffff168152602001600015158152509056fea165627a7a72305820f81bfd1b482bcfc3c89979b5878558d4c1487ae39b1b788a4f28f2d2a6fd2a310029",
  "source": "pragma solidity ^0.5.3;\r\n\r\ncontract Vote {\r\n    \r\n    string public value;\r\n    uint16 public YesVotes;\r\n    uint16 public NoVotes;\r\n    bool public canVote;\r\n\r\n    struct Voter{\r\n        address voterAddr;\r\n        bool vote;\r\n    }\r\n\r\n    Voter[] voters;\r\n\r\n\r\n\r\n    function recieve(bool _userVote) public payable {\r\n        require(msg.value==0.0001 ether,\"Send 0.0001 ether\");\r\n        require(canVote == true, \"Voting has ended\");\r\n        Voter memory voter;\r\n        voter.voterAddr = msg.sender;\r\n        voter.vote = _userVote;\r\n        voters.push(voter); \r\n        if(_userVote){\r\n            YesVotes++;\r\n        }else{\r\n            NoVotes++;\r\n        }\r\n    }\r\n\r\n    function voteFinalization() public {\r\n        require(canVote == true, \"Voting has ended\");\r\n        canVote = false;\r\n        /*\r\n        if(YesVotes>NoVotes){\r\n\r\n        }*/\r\n    }\r\n\r\n    function getTotalDeposit() view public returns(uint) {\r\n        return address(this).balance;\r\n    }\r\n}",
  "sourcePath": "D:\\Proyectos\\Zerti\\contracts\\Vote.sol",
  "compiler": {
    "name": "solc",
    "version": "0.5.3+commit.10d17f24.Emscripten.clang"
  },
  "schemaVersion": "3.4.7",
  "updatedAt": "2022-06-08T22:18:09.927Z",
  "devdoc": {
    "methods": {}
  },
  "userdoc": {
    "methods": {}
  }
}